:020000040800F2
:1000000050080020290200084B1C00086F1B000844
:10001000491C00081F0400087D22000800000000A1
:100020000000000000000000000000004F1C00085D
:10003000DD040008000000004D1C0008511C0008F1
:10004000430200084302000843020008430200087C
:10005000430200084302000843020008430200086C
:10006000430200084302000843020008430200085C
:1000700021040008430200082D0400084302000880
:10008000430200084302000843020008430200083C
:10009000430200084302000843020008430200082C
:1000A000430200084302000843020008430200081C
:1000B000430200084302000843020008430200080C
:1000C00043020008430200084302000843020008FC
:1000D000430200084302000843020008712200089E
:1000E00043020008430200084302000843020008DC
:1000F00043020008430200084302000843020008CC
:1001000043020008430200084302000843020008BB
:100110004302000843020008F91C0008051D0008FE
:10012000430200084302000843020008430200089B
:10013000430200084302000843020008430200088B
:10014000430200084302000843020008430200087B
:10015000430200084302000843020008430200086B
:10016000430200084302000843020008430200085B
:100170004302000843020008430200080000000098
:10018000430200084302000800F002F800F03CF8C7
:100190000AA090E8000C82448344AAF10107DA45E2
:1001A00001D100F031F8AFF2090EBAE80F0013F0F8
:1001B000010F18BFFB1A43F001031847D8260000AF
:1001C000F8260000103A24BF78C878C1FAD8520740
:1001D00024BF30C830C144BF04680C6070470000C1
:1001E0000023002400250026103A28BF78C1FBD840
:1001F000520728BF30C148BF0B6070471FB502F0DF
:1002000034FB1FBD10B510BD00F0CFF81146FFF74D
:10021000F5FF02F049F900F0EDF803B4FFF7F2FF43
:1002200003BC00F0F5F80000094880470948004782
:10023000FEE7FEE7FEE7FEE7FEE7FEE7FEE7FEE796
:10024000FEE7FEE704480549054A064B70470000F3
:10025000E91C000889010008500200205008002015
:10026000500400205004002053EA020C00F0698082
:100270002DE9F04B4FF00006002B1FBFB3FA83F5BA
:1002800003FA05F424FA05F65E4012BF1643B2FAEB
:1002900082F502FA05F4C5F120051EBF22FA05FC1D
:1002A00044EA0C04203556EA044C4FEA144418BFC3
:1002B000641C4FF000084FF00009904271EB030CF2
:1002C00039D3002919BFB1FA81F701FA07F6B0FA5C
:1002D00080F700FA07F6C7F120071EBF20FA07FCD7
:1002E00046EA0C062037B6FBF4FCA7EB0507103FE7
:1002F00007F01F0BCBF120060CFA0BFB2CFA06F6CD
:1003000044BFB3460026202FA4BF5E464FF0000B2B
:100310005BEA060C08BF4FF0010B19EB0B09ABFBB6
:10032000027C48EB0608C01B06FB02CC0BFB03CC8F
:1003300071EB0C01C1E70B46024641464846BDE859
:10034000F08B13B54FF000004FF00001AFF30080C9
:10035000BDE81C4070474FF0000200B513469446BC
:100360009646203922BFA0E80C50A0E80C50B1F10D
:100370002001BFF4F7AF090728BFA0E80C5048BF21
:100380000CC05DF804EB890028BF40F8042B08BFBF
:10039000704748BF20F8022B11F0804F18BF00F8BB
:1003A000012B7047704770477047754600F02CF876
:1003B000AE4605006946534620F00700854618B052
:1003C00020B5FFF73FFFBDE820404FF000064FF09B
:1003D00000074FF000084FF0000B21F00701AC467A
:1003E000ACE8C009ACE8C009ACE8C009ACE8C00999
:1003F0008D46704710B50446AFF300802046BDE837
:100400001040FFF70ABF000000487047F0010020CD
:1004100001491820ABBEFEE7260002007047FEE748
:10042000014800F0B9B8000030010020014800F098
:10043000B3B800009001002001681823CAB2103A36
:10044000B2FBF3F2054B6FF30901032A9B5CC36512
:1004500000D9091D8165084670470000742800080E
:1004600010B5014600208B698A6A4FF0C07453B101
:10047000B3F5005F15D072B1012A0CD0022A0AD060
:10048000032A09D104E01AB1012A06D0022A03D1B5
:10049000C96AC90100D5012010BDC96AA142FAD0BC
:1004A00010BD002AF7D0012AF2D0022AF3D0032A85
:1004B000F3D010BD30B50468256825F4802525608B
:1004C000046863608368402B036803D09960006808
:1004D000C26030BD9A600068C16030BD704772B6BE
:1004E000FEE72DE9F0410446876D00F0C9FA0646A3
:1004F00094F835000025022806D08020606584F835
:1005000034500120BDE8F0812068016821F0160117
:1005100001602068416921F080014161206C08B9C7
:10052000A06C20B12068016821F0080101602068FA
:10053000016821F0010101600CE000F0A1FA801BCC
:10054000052807D920206065032084F8350084F849
:100550003450D7E720680068C007EED194F85C10EB
:100560003F208840B860012084F8350084F834507A
:100570000020C7E790F83510022903D0802141659B
:1005800001207047052180F835100068016821F0CE
:1005900001010160002070472DE9F84304464FF047
:1005A0000009CDF8009063484FF41651A56D00681E
:1005B000B0FBF1F72E6894F85C10082000FA01F106
:1005C00031420FD021680A6852070BD50A6822F021
:1005D00004020A6094F85C108840A860606D40F0E6
:1005E0000100606594F85C104FF0010808FA01F012
:1005F000304208D021684969090604D5A860606DB9
:1006000040F00200606594F85C100420884030429D
:1006100008D021680968890704D5A860606D40F09A
:100620000400606594F85C1010208840304218D0B7
:1006300021680968090714D5A86020680168490382
:1006400004D50068000308D5A16C07E00168C9055E
:1006500003D4016821F008010160216C09B1204632
:10066000884794F85C1020208840304231D02168BF
:100670000968C9062DD5A86094F8350005282068BA
:10068000016806D0490347D5006800031DD4616C9A
:100690001CE021F0160101602068416921F0800111
:1006A0004161206C08B9A06C20B12068016821F07C
:1006B0000801016094F85C103F208840A86084F82D
:1006C000358084F83490216D1FE0E16B09B120463C
:1006D0008847606D00282BD0606DC00714D00520BE
:1006E00084F835002068016821F00101016000985C
:1006F000401C0090B84203D820680068C007F6D1BB
:1007000084F8358084F83490E16C002910D001B071
:100710002046BDE8F04308470168C905D5D4016803
:1007200021F01001016084F8358084F83490CCE722
:10073000BDE8F883480000202DE9F041044600F0B0
:100740009FF906465CB1022084F83500002584F844
:1007500034502068016821F0010101600DE00120A2
:10076000BDE8F08100F08CF9801B052805D9202018
:100770006065032084F83500F2E720680068C00750
:10078000F0D12268116820480140D4E901031843E0
:10079000D4E903363343184363691843A369184304
:1007A000E3691843236A18430843616A042903D1A3
:1007B000D4E90B1319430843106020684069666A46
:1007C00020F0070130460E43012704280CD1A06A0F
:1007D0000643E06A40B12046FFF742FE20B14020C8
:1007E000606584F83570BAE7206846612046FFF7F7
:1007F00023FE94F85C203F2191408160656584F878
:1008000035700020ACE700003F8010F02DE9F0418A
:100810000446866D90F83400002501280DD0012093
:1008200084F8340094F835700020012F07D084F844
:10083000340002252846BDE8F0810220FBE70227AC
:1008400084F8357060652046FFF734FE94F85C103C
:100850003F208840B0602068016841F016010160C7
:10086000206C20B12068016841F008010160206817
:10087000016841F001010160DCE700002DE9F84F5B
:10088000DFF8BCA10022012503264FF00F090AF171
:10089000040BAAF1040E00BF0B6805FA02F4234012
:1008A000A34270D10F7907F00307012F01D0022F67
:1008B00016D187684FEA420806FA08FC27EA0C07B7
:1008C000D1F80CC00CFA08FC4CEA070CC0F808C0C0
:1008D0004768A7430C79C4F3001494403C43446038
:1008E0000C79E443A4070AD0C4684FEA420C06FA24
:1008F0000CF7BC438F6807FA0CF72743C7600C79E5
:1009000004F00304022C12D1D40800EB840CDCF8B0
:1009100020405707FF0E09FA07F824EA0804D1F827
:10092000108008FA07F848EA0408CCF82080046828
:100930004FEA420C06FA0CF7BC430F7907F00307A5
:1009400007FA0CF7274307604C6814F4403F70D057
:100950003C4C276847F480472760246822F003074F
:1009600004F480440094384C07EB040CDCF808488D
:1009700097074FEA177809FA08F7BC43334FB84294
:1009800002D1002724E054E0314FB84201D10127C1
:100990001EE0304FB84201D1022719E02E4FB84275
:1009A00001D1032714E02D4FB84201D104270FE0F5
:1009B0002B4FB84201D105270AE02A4FB84201D196
:1009C000062705E0284FB84201D1072700E0082795
:1009D00007FA08F72743CCF80878DAF800405746BA
:1009E000D1F804C09C435FEACC2C00D51C433C608A
:1009F000DBF800405F46D1F804C09C435FEA8C2CD2
:100A000000D51C433C60DEF800407746D1F804C0B6
:100A10009C435FEA8C3C00D51C433C60084F083F78
:100A20003C68D1F804C09C435FEACC3C00D51C4331
:100A30003C60521C102AFFF42FAFBDE8F88F000075
:100A4000083C0140443802400030014000000240B0
:100A50000004024000080240000C02400010024066
:100A60000014024000180240001C024000690840C7
:100A700000D0012070470AB1816170470904FBE78B
:100A800001488068704700003C00002002488168EF
:100A900002781144816070473C0000200B4810B57B
:100AA000016841F400710160016841F480610160F6
:100AB000016841F480710160032000F06FF80F209D
:100AC00000F006F800F024F8002010BD003C0240C1
:100AD00070B50D4D04464FF47A712878B1FBF0F0F3
:100AE0000A490968B1FBF0F000F00AFB48B9102C84
:100AF00007D200222146501E00F030F800206C6022
:100B000070BD012070BD00003C00002048000020A6
:100B10000A4808B5016841F480410160006800F4AA
:100B2000804000900548001F016841F0805101603D
:100B3000006800F08050009008BD0000443802407A
:100B4000002809DB00F01F020121914040098000CC
:100B500000F1E020C0F8001170470000F0B40E4B27
:100B60001B680C46C3F30223C3F10705042D00D90B
:100B70000425191D072901D2002300E0DB1E0126F0
:100B800006FA05F1491E214099409E40761E164006
:100B90003143F0BC01F073BB0CED00E0064900F0FE
:100BA000070208684FF6FF03184040EA0220034A94
:100BB00010430860704700000CED00E00000FA05EB
:100BC0002DE9F0470E46050065D0DFF81481D8F80E
:100BD0000000F7B200F00700B04207D288F80070BA
:100BE000D8F8000000F00700B04254D128683D4C0E
:100BF000810712D5400703D5206840F4E0502060FB
:100C00002878000703D5206840F460402060206801
:100C1000A96820F0F000084320602878C0072DD094
:100C2000304968680839012812D0022813D00328F7
:100C300011D00968890700292DDA216821F0030104
:100C400001432160FFF71CFF814641F2883A0EE024
:100C500009688903EFE709688901ECE7FFF710FFEE
:100C6000A0EB0901514502D90320BDE8F0872068B7
:100C7000696800F00C00B0EB810FEFD1D8F80010DC
:100C8000404601F00701B14207D90770006800F043
:100C90000700B04201D00120E7E72878400705D5DA
:100CA0002068E96820F4E0500843206028780007B5
:100CB00006D52068296920F4604040EAC100206020
:100CC00000F038F82168084AC1F30311515CC840AC
:100CD0000649086006480068FFF7FAFE0020C4E7EE
:100CE000003C0240083802407C28000848000020F0
:100CF000400000200448054900680968044AC1F31F
:100D00008221515CC84070474800002008380240EA
:100D10008C2800080448054900680968044AC1F3A2
:100D20004231515CC84070474800002008380240FA
:100D30008C280008154810B5006810F00C02144803
:100D400013D04110042A0FD0082A0ED10F4C241FB3
:100D50002268236802F03F025B0207D52068C0F3D7
:100D60008810A0FB010106E0084610BD2168C1F310
:100D70008811A1FB00010023FFF776FA2168C1F377
:100D80000141491C4900B0FBF1F010BD0838024098
:100D90000024F4002DE9F84F04006ED02078DFF82D
:100DA0004C93C007A9F104054AD009F10400016879
:100DB000C1F38101012908D00068C0F38100022835
:100DC0000AD1D9F80000400206D52868800337D53B
:100DD00060680028E1D033E06068B0F5803F10D053
:100DE000B0F5A02F286810D020F480302860286843
:100DF00020F4802028606068A8B1FFF741FE064615
:100E00000DE0286840F48030F4E740F4802028604A
:100E1000F7E700BFFFF734FE801B642873D828680B
:100E20008003F7D50CE0FFF72BFE064605E000BF78
:100E3000FFF726FE801B6428F0D828688003F7D4CB
:100E40002078DFF8AC8280074FF0000A3ED5A74833
:100E5000001D016811F00C0F08D00068C0F381007C
:100E600002280BD1D9F80000400207D42868800777
:100E700016D5E068012800D112E033E1E068B8B18E
:100E80000120C8F80000FFF7FBFD064605E000BFA3
:100E9000FFF7F6FD801B0228C0D828688007F7D529
:100EA0002868216920F0F80040EAC10028600DE0C0
:100EB000C8F800A0FFF7E4FD064604E0FFF7E0FDF8
:100EC000801B02281FD828688007F7D420780007E5
:100ED00022D5864F87486169703771B10121016061
:100EE000FFF7CEFD064604E0FFF7CAFD801B02288F
:100EF00009D838688007F7D50EE0C0F800A0FFF7E2
:100F0000BFFD064605E082E0FFF7BAFD801B022820
:100F10007DD838688007F7D42078400768D5DFF897
:100F2000CCB100270BF13C0BDBF80000C0000BD468
:100F3000DBF8001041F08051CBF80010DBF8000026
:100F4000012700F0805000906B4E3068C00510D42F
:100F5000306840F480703060FFF792FD009005E04B
:100F6000FFF78EFD0099401A022850D83068C0055E
:100F7000F6D55E4EA0686C3601280FD00528306883
:100F800010D020F001003060306820F004003060A4
:100F9000A068B8B1FFF774FD00900FE0306840F032
:100FA0000100F4E740F004003060F7E7FFF768FD68
:100FB0000099411A41F28830814266D83068800732
:100FC000F4D50EE0FFF75CFD009007E0FFF758FD59
:100FD0000099411A41F28830814256D83068800722
:100FE000F4D42FB1DBF8001021F08051CBF80010C1
:100FF000A069C8B33D49091D0968C1F381010229EF
:101000004AD00228504607D0C8F8600000E03CE013
:10101000FFF736FD04463BE04746C8F86000FFF79F
:101020002FFD064605E000BFFFF72AFD801B0228C2
:101030002BD828688001F7D4D4E907010843A16AB6
:101040002E4A490802EB0141626A41EA82110843D3
:1010500094F82C1040EA0161C9F8001001203866AC
:10106000FFF70EFD044606E03EE000BFFFF708FD77
:10107000001B022809D828688001F7D534E000BF9A
:10108000FFF7FEFC001B022802D90320BDE8F88F01
:1010900028688001F4D427E00128F7D0D9F80000AF
:1010A000E26900F4800191421CD1226A00F03F0104
:1010B000914217D147F6C071626A0140B1EB821FBD
:1010C00010D1A26A4FF0FF3300F4403103EB52021B
:1010D000B1EB024F06D194F82C1000F07060B0EB29
:1010E000016F01D00120D1E70020CFE70438024092
:1010F00000004742800E4742007000400000FFFFA2
:1011000010B5401EB0F1807F01D3012010BD4FF01B
:10111000E02460610F21601701F0B1F80020A061A8
:1011200007202061002010BD7047704770B590F80F
:101130003C20012A32D0012480F83C40022280F871
:101140003D2003685A689D6822F070060A683243A1
:101150005A60134B02689A4214D0B2F1804F11D0FA
:10116000104B9A420ED0104B9A420BD00F4B9A4222
:1011700008D00F4B9A4205D00E4B9A4202D00E4B2C
:101180009A4204D1496825F080031943916080F8A0
:101190003D40002180F83C10084670BD022070BD23
:1011A000000001400004004000080040000C004026
:1011B00000040140004001400018004010B5040048
:1011C00003D094F83D0010B107E0012010BD0020CD
:1011D00084F83C00204600F01FF8022084F83D000F
:1011E000211D206800F094FD012084F8460084F859
:1011F0003E0084F83F0084F8400084F8410084F801
:10120000420084F8430084F8440084F8450084F8E0
:101210003D00002010BD000008B5154A01681548C2
:1012200091420ED1016841F0100101600068002276
:1012300000F01000009011463620FFF78FFC36209A
:1012400010E00D4A914211D1016841F02001016086
:101250000068002200F02000009002213720FFF7F4
:101260007DFC3720BDE80840FFF76ABC08BD0000E0
:1012700000100040403802400014004090F83D103B
:10128000012901D001207047022180F83D1000683B
:101290001149884214D0B0F1804F11D00F498842D3
:1012A0000ED00F4988420BD00E49884208D00E4913
:1012B000884205D00D49884202D00D49884204D1A8
:1012C000816801F00701062903D0016841F001019E
:1012D0000160002070470000000001400004004051
:1012E00000080040000C00400004014000400140A4
:1012F0000018004090F83D10012901D001207047EE
:10130000022180F83D100168CA6842F00102CA60FB
:1013100000681149884214D0B0F1804F11D00F49B4
:1013200088420ED00E4988420BD00E49884208D020
:101330000D49884205D00D49884202D00C498842A7
:1013400004D1816801F00701062903D0016841F04A
:1013500001010160002070470000014000040040CE
:1013600000080040000C0040000401400040014023
:101370000018004070472DE9F04104460068C66837
:1013800005694FF00007A90713D5B10711D5F91E5C
:10139000016101202077206880698007204602D003
:1013A000FFF7E8FF04E000F07EF8204600F07CF84C
:1013B0002777680716D5700714D521686FF00400E9
:1013C0000861022020772068806910F4407F204661
:1013D00002D0FFF7CFFF04E000F065F8204600F0F0
:1013E00063F82777280715D5300713D521686FF0E4
:1013F00008000861042020772068C0698007204623
:1014000002D0FFF7B7FF04E000F04DF8204600F0EF
:101410004BF82777E80616D5F00614D521686FF04B
:1014200010000861082020772068C06910F4407F10
:10143000204602D0FFF79EFF04E000F034F820467B
:1014400000F032F82777E80708D0F00706D02168C7
:101450006FF001000861204600F028F8280608D542
:10146000300606D521686FF0800008612046FFF73E
:101470005BFE680608D5700606D521686FF040004F
:101480000861204600F030F8A8060AD5B00608D555
:1014900021686FF0200008612046BDE8F041FFF7A9
:1014A00044BEBDE8F08170477047000010B5006889
:1014B0000B49884212D10B4CD4ED020A94ED030A79
:1014C00000F0BAFF84ED040A01F092F8E0780128F8
:1014D00004D12071BDE8104001F076B810BD0000C5
:1014E00000140040040000207047704701684969FB
:1014F00090F84120C1F3C011212A0AD149B10168F5
:10150000143151E8002F22F0800241E80023002B23
:10151000F5D10168496990F84220C1F38011222A6F
:101520001ED1E9B101680C3151E8002F22F480721C
:1015300041E80023002BF5D10168143151E8002F58
:1015400022F0010241E80023002BF5D1016814319B
:1015500051E8002F22F0400241E80023002BF5D192
:101560000020704708B590F84110212909D1016881
:10157000143151E8002F42F0800241E80023002B93
:10158000F5D190F84210222923D101680A684968F0
:101590000091016949B101680C3151E8002F42F412
:1015A000807241E80023002BF5D10168143151E825
:1015B000002F42F0010241E80023002BF5D1016821
:1015C000143151E8002F42F0400241E80023002B83
:1015D000F5D1002008BD7047F8B5016804460868D9
:1015E000CA684B6910F00F0F4FF0000559D003F097
:1015F000010602F49077374365D0C10705D0D105C5
:1016000003D5616C41F001016164410705D5D9073B
:1016100003D0616C41F002016164810705D5D907EF
:1016200003D0616C41F004016164010707D502F049
:101630002001314303D0616C41F008016164616CA9
:1016400000293AD0800604D5900602D5204600F045
:10165000A5FC20684069616CC0F38010090700D4C4
:1016600060B3204600F065FC20684069400621D543
:101670002068143050E8001F21F0400140E80012BB
:10168000002AF5D1E06BA8B16E490165E06BFEF769
:1016900071FF002811D0E06B016D01B0BDE8F04092
:1016A000084783060FD593060DD52046BDE8F840C0
:1016B00000F074BC2046FFF78EFFF8BD2046FFF710
:1016C0008AFF6564F8BD266B2023012E7DD1C606F6
:1016D0007BD5D60679D508684868009048694FF0F0
:1016E0000206400641D5E16B086840680004000C22
:1016F000E8D0A28D8242E5D9E085C869B0F5807F47
:101700002DD020680C3050E8001F21F4807140E893
:101710000012002AF5D12068143050E8001F21F093
:10172000010140E80012002AF5D12068143050E889
:10173000001F21F0400140E80012002AF5D184F892
:101740004230256320680C3050E8001F21F0100162
:1017500040E80012002AF5D1E06BFEF7C2FE666396
:10176000A08DE18D401A81B22AE0A08DE18D401A52
:1017700081B2E08D0028A5D00029A3D022680C32C8
:1017800052E8000F20F4907042E80007002FF5D1D6
:101790002068143050E8002F22F0010240E80027B2
:1017A000002FF5D184F84230256320680C3050E8D2
:1017B000002F22F0100240E80023002BF5D16663D1
:1017C0002046FFF792FEF8BDFFE705062BD515066C
:1017D00029D594F841002128F5D1A068B0F5805FA3
:1017E00001D12069B0B1206A411C216221680078D2
:1017F0004860E08C401E0004000CE084E3D12068C7
:10180000C16821F08001C1602068C16841F04001D9
:10181000C160D8E7206A0088C0F308004860206AE9
:10182000801C2062E5E74006CDD55006CBD5CA68BE
:10183000204622F04002CA6084F8413000F080F96E
:10184000C1E70000E91D000870B5040004D094F859
:101850004100002510B106E0012070BD84F8405021
:10186000204600F023F8242084F841002068C16855
:1018700021F40051C160204600F0F2FB20680169AC
:1018800021F4904101612068416921F02A01416100
:101890002068C16841F40051C1606564202084F86B
:1018A000410084F842006563002070BD2DE9F043DB
:1018B00087B0064614216846FEF74DFD3149306871
:1018C00088425BD130480025016841F480210160E5
:1018D000006800F4802005902B481038016841F022
:1018E000020101600068694600F0020005904FF4B3
:1018F000406000900220CDE90105032003900720FD
:1019000004902248FEF7BAFF224C21484FF00067AE
:101910002060C4E901754FF48068C4E903584FF4AE
:1019200080796561C4E906594FF44030C4E908057F
:101930002046FEF701FF08B1FEF7D1FDF463A66370
:101940001348154C3030E4E802074020A4E8210198
:10195000114844F81459C4E9065925626562FEF736
:10196000EBFE08B1FEF7BBFDB46300221146272051
:10197000A663FFF7F3F82720FFF7E2F807B0BDE80A
:10198000F08300000048004040380240000402405C
:1019900028600240300100209001002090F8423081
:1019A000202B01D00220704721B11AB1002303631C
:1019B00000F0DCBB0120704770B500681649884212
:1019C00028D1164C164D20782978884222D161788A
:1019D000AA786018807890421CD1204600F082FCE2
:1019E000A17A81420BD105F10801081D00F058FCD5
:1019F0000120E8702046BDE8704000F0DDBD0849D8
:101A0000BDE8704005480C222C314FF47A734838F9
:101A100000F009B870BD000000480040240100201B
:101A20000400002070472DE9F843044690F8410077
:101A3000984616460D46202802D00220BDE8F883BD
:101A400085B17EB100206064212084F84100FFF759
:101A500017F8A6848146E684A0682027B0F5805F49
:101A600002D003E00120E9E7206910B12E460025ED
:101A70000EE000260CE08021204600F0BFFBA8B954
:101A8000C6B116F8010B21684860E08C401EE08466
:101A9000E08C4B464FF00002CDF800800028EAD1E0
:101AA0004FF04001204600F0A9FB40B184F841709E
:101AB0000320C3E735F8020BC0F30800E3E784F81E
:101AC00041700020BAE7000070B5044690F841006C
:101AD000202801D0022070BD49B342B32162A28404
:101AE000E28400206064212384F84130A56B114B0F
:101AF000EB63A56B104B2B64A56B104BEB64A36BD6
:101B00001865256813462A1DA06BFEF77FFE216825
:101B10006FF0400008602068143050E8001F41F06A
:101B2000800140E80012002AF5D1002070BD01209C
:101B300070BD0000E71E0008291F0008F91D0008FD
:101B400010B509490068096888420BD10648FFF7BB
:101B5000CDFC42F2107000F0EDFBBDE810400248F1
:101B6000FFF700BD10BD0000DC0000207047FEE75D
:101B70002DE9F04186B014216846FEF7ECFB2E48B3
:101B80000024016841F080010160016801F08001DA
:101B90000591016841F004010160016801F0040150
:101BA0000591016841F010010160016801F0100128
:101BB0000591016841F002010160016801F0020134
:101BC0000591016841F008010160016801F0080118
:101BD0000591016841F0010101600068174F00F0B4
:101BE00001000590002220213846FEF744FFDFF86F
:101BF0005080BE14002231464046FEF73CFF2020B4
:101C000000900125CDE90154694638460394FEF75A
:101C100035FEE802CDE9000469460A480294FEF761
:101C20002DFE0096CDE90154694640460394FEF727
:101C300025FE06B0BDE8F0813038024000080240C1
:101C4000000C024000100240FEE7FEE770477047BC
:101C5000FEF71CBF30B593B030216846FEF77BFB22
:101C600014210CA8FEF777FB1D480025016841F000
:101C700080510160006800F080501190194801689F
:101C800041F4804101600068022400F4804011901A
:101C900001200090000401908001CDE9064008AACF
:101CA0000420A82182E813000B906846FFF772F821
:101CB00008B172B6FEE70CA90F2081E831004FF49D
:101CC000A0500F904FF48050109005210CA8FEF703
:101CD00077FF002801D072B6FEE713B030BD0000D8
:101CE00040380240007000400248016841F4700131
:101CF0000160704788ED00E00148FFF73CBB000041
:101D00004C0000200148FFF736BB00009400002083
:101D1000F0B50268294C2A4D2A4E2B4F2B4B4FF021
:101D2000804CA04209D0604507D0A84205D0B042FF
:101D300003D0B84201D0984204D122F0700E4A6814
:101D400042EA0E02A0421BD0604519D0A84217D02B
:101D5000B04215D0B84213D0984211D01C4DA842C1
:101D60000ED01C4DA8420BD01B4DA84208D01B4DD5
:101D7000A84205D01A4DA84202D01A4DA84203D15C
:101D800022F44075CA682A434D6922F080022A4332
:101D900002608A68C2620A688262A04201D09842E8
:101DA00001D109690163012141610169C90703D0BA
:101DB000016921F001010161F0BD00000000014056
:101DC0000004004000080040000C004000040140F6
:101DD000004001400044014000480140001800401C
:101DE000001C00400020004010B5806B0021C18520
:101DF000C184FFF7F0FB10BD70B5846B20684069AB
:101E000094F84110C0F3C0100025212904D118B165
:101E1000E584204600F0B4F82068406994F8421048
:101E2000C0F38010222904D118B1E585204600F0C6
:101E300080F8606C40F0100060642046FFF7CBFB38
:101E400070BD10B50146806B096809684FF000024B
:101E5000C9052ED4C28501680C3151E8003F23F436
:101E6000807341E80034002CF5D10168143151E849
:101E7000003F23F0010341E80034002CF5D1016854
:101E8000143151E8003F23F0400341E80034002CB6
:101E9000F5D1202180F84210016B012909D1016898
:101EA0000C3151E8003F23F0100341E80034002CCE
:101EB000F5D14263016B012902D0FFF77DFD10BD12
:101EC000818DFFF712FB10BD10B5806B01214163BE
:101ED000016B012902D0FFF7A5FD10BD818D4908D6
:101EE000FFF703FB10BD10B50146806B0968096858
:101EF000C90516D40021C1840168143151E8002FAE
:101F000022F0800241E80023002BF5D101680C315A
:101F100051E8002F42F0400241E80023002BF5D1A8
:101F200010BDFFF70DFE10BD10B5806BFFF71EFE54
:101F300010BD01680C3151E8002F22F4907241E885
:101F40000023002BF5D10168143151E8002F22F055
:101F5000010241E80023002BF5D1016B012909D1D1
:101F600001680C3151E8002F22F0100241E80023F3
:101F7000002BF5D1202180F8421000210163704729
:101F800001680C3151E8002F22F0C00241E8002323
:101F9000002BF5D1202180F84110704708B590F84A
:101FA0004210222901D0022008BD82684FF48053DC
:101FB0009A4201D1016921B1816A9A421BD04AB18A
:101FC0000AE00268816A5268C2F308020A80816AE4
:101FD000891C08E0026972B10268526802F07F024F
:101FE0000A70816A491C8162C18D491E0904090C6D
:101FF000C18503D01BE002685268F1E70168CA6836
:1020000022F02002CA600168CA6822F48072CA60A5
:1020100001684A6922F001024A61202180F84210D9
:1020200000214163026B012A03D0FFF7C5FC0020A9
:1020300008BD016301680C3151E8002F22F0100245
:1020400041E80023002BF5D101680A68D20602D5C9
:102050000A6849680091818DFFF747FAE7E70000B9
:1020600070B5044600680169E26821F440511143EB
:1020700001612169A068E26908436169114308436D
:102080002168CA6849F20C639A430243CA60206817
:102090004169A26921F440711143416131492068CD
:1020A000884202D03049884202D1FEF733FE01E077
:1020B000FEF720FEE2690023192164253226B2F5DD
:1020C000004F626828D0A0FB0101930F9200FEF739
:1020D000CBF80146B0FBF5F06FF01802504301EB6E
:1020E000800006EB0010B0FBF5F000F0F002B1FB51
:1020F000F5F002EB0012B1FBF5F06FF01803584356
:1021000001EB800006EB0010B0FBF5F000F00F00D3
:1021100021681044886070BDA0FB010192185B41EA
:10212000FEF7A2F80146B0FBF5F00201B1FBF5F0B5
:102130006FF01803584301EB800006EBC000B0FBC2
:10214000F5F000F0F80002EB4002B1FBF5F0584367
:1021500001EB800006EBC000B0FBF5F000F00700DB
:10216000D6E70000001001400014014038B581623C
:1021700004468285002013466064222284F84220AF
:10218000E56B1B4AEA63E56B1A4A2A64E56B1A4A57
:10219000EA64E26B10650A462168E06B091DFEF7F0
:1021A00035FB2068016840680090206948B12068CC
:1021B0000C3050E8001F41F4807140E80012002A02
:1021C000F5D12068143050E8001F41F0010140E8CB
:1021D0000012002AF5D12068143050E8001F41F0A9
:1021E000400140E80012002AF5D1002038BD00006F
:1021F000431E0008C91E0008F91D00082DE9F84318
:10220000984617460D460446089E24E0701C22D0CE
:10221000FEF736FCA0EB0800B0421AD8CEB1206819
:10222000C168490717D5802D15D0402D13D00168FE
:10223000C94309070FD40168002540680090204673
:10224000FFF777FE0820606484F840500120BDE865
:10225000F8830320FBE72068006835EA000004D01B
:102260000020B842D2D00020F1E70120F9E70000B9
:102270000148FFF7B1B90000DC000020FEE70907C4
:10228000090E002804DB00F1E02080F800147047FC
:1022900000F00F0000F1E02080F8141D70470000EE
:1022A00038B50F4B00226C469D18AD78A554521CD2
:1022B000042AF9DB9DF80020DDF8015042EA0522EE
:1022C000026000201A1892792254401C0428F9DB7D
:1022D0009DF80000DDF8012040EA0220086038BDCA
:1022E00024010020034610B500200122891E02E0CF
:1022F0009C5C6040521C8A42FADB10BD034610B55C
:1023000000200122891E02E09C5C6040521C8A422F
:10231000FADB10BD33B50A462DED020B6B460C1DE2
:1023200004E09D186D1A2D788554521CA242F8DBEA
:102330003FBD000030B5074900234FF47A7405E033
:102340000A6853620A68556AA542FCD3401E80B2EF
:10235000F6D230BD4C000020044900220B685A62BE
:1023600009684A6A8242FCD3704700004C00002092
:102370002DE9F0410024FEF783FB07464FF400658A
:10238000214E07E0FEF77CFBC01B642802D9002029
:10239000BDE8F08129463046FEF768FB0128F1D000
:1023A000A8461A4D0027012220212846FEF763FB8C
:1023B0000120FFF7D1FF6400002220212846FEF70C
:1023C0005AFB0120FFF7C8FF41463046FEF74EFB9F
:1023D000012800D1641C7F1C7FB2182FE3DB84F43A
:1023E0000004012220212846FEF745FB0120FFF7CB
:1023F000B3FF002220212846FEF73DFB0120FFF716
:10240000ABFF2046C4E70000001002400008024075
:1024100070B5002506462C4605E000BFFFF7A8FF73
:10242000641C0544A4B2B442F8D395FBF6F000EE68
:10243000100AB8EEC00A70BD10B514202DED028B45
:10244000B0EE608AF0EE408AFFF7E2FF0848DFED69
:10245000090A9FED091A80ED000A30EE680A30EE95
:10246000600A60EE080ABDEC028B80EE810A10BDA6
:10247000000000206497064B00007A4410B5094C18
:10248000012220212046FEF7F6FA0A20FFF752FF2C
:10249000002220212046FEF7EEFABDE810400A2077
:1024A000FFF748BF000802401CB5FEF7F7FAFFF738
:1024B000D1FBFFF75DFB3B480024016841F40011AC
:1024C00001600068224600F40010009021460C20B4
:1024D000FEF744FB0C20FEF733FB002203210E2005
:1024E000FEF73CFB0E20FEF72BFB304800942E49F4
:1024F000019401605321C0E9011480254FF6FF715A
:102500008561C160FEF75AFE08B172B6FEE700941D
:10251000694626480194FEF709FE08B172B6FEE747
:1025200022482349903001604FF41651C0E901144C
:102530000C21C460C0E904418461C461FFF784F9DF
:1025400008B172B6FEE71948009448301949019461
:10255000016040F24731C0E9011442F20F71856118
:10256000C160FEF72BFE08B172B6FEE70F4800947B
:10257000694648300194FEF7D9FD08B172B6FEE70E
:102580000A48FEF77BFE09484830FEF7B3FE0749CC
:102590000C22D831A1F14800FFF700FAFFF76EFFD7
:1025A000FEE7000030380240001000404C000020E0
:1025B000004800400014004000210A464254491CD3
:1025C0000C29FBDB7047000010B5074C207901286F
:1025D00008D1082204F124010448FFF775FA00200D
:1025E0002071E07010BD000004000020DC0000201D
:1025F00070B52DED028BB0EE408A9FED1F0A68EE9C
:10260000000A10EE900A00F0BFF800F039F84FF41D
:102610007A71B0FBF1F1194C6FF07C0204F12405E2
:102620006161514300EBC1016420B1FBF0F06FF038
:102630001802A061504301EB80010A20B1FBF0F0C9
:10264000E061404200EB800001EB40002062207816
:1026500028706078687002212846B0EE480AFFF7BB
:1026600059FE61782846FFF749FEA871A078E87105
:10267000BDEC028B70BD000000007A440400002015
:102680004FEA41034FEA5353A3F58063D3F11E038E
:10269000C8BFD3F1210C0CDD4FF0004242EAC12249
:1026A00042EA505232FA03FC8CEAE17CACEBE17076
:1026B0007047102BC4BF0020704703F5787CBCF135
:1026C000FF3F04D06FF0004282EA2100704770B5EE
:1026D00000F005F84992248000207047F2E70EF1DF
:1026E000020E2EF0030E5EF8046B364205D4012A6A
:1026F00043EB030515F5001F12D8012841EB010C2F
:102700001CF5001F0CD80ED14FEAD17C15F5001F27
:102710000CEB4C0C0CF1020C08BF4CEBD37C04E02E
:102720004FF0080C01E04FEAD37C0CEB4C0526FA85
:1027300005F606F00706B6F1040C06D20EEB860C81
:10274000BDE870404CF0010C6047DFE80CF0090B6D
:1027500002024FF000414FF00000A1F5002170BDD2
:1027600019461046012851EB010418BFD4F5001496
:1027700084BF002001F0004170BD0808A0F50011E1
:102780004FEA31017047000043004FEAD30C4FEA93
:102790003C0C43401FBF40070CF1605113F0FE4F4B
:1027A00070471CF0006F03D100200CF0004170470F
:1027B0000CF0004343EA507010B540EACC0000F042
:1027C0000EF800BF000000924FEA0001FFF7D5BFEE
:1027D0004FF000414FF00000A1F5002170470EF1CD
:1027E000020E2EF0030E5EF8044B244204D44FEA8E
:1027F0004102B2F17F4F11D84FEA4003B3F17F4F4E
:102800000CD80ED14FEAD07CB2F17F4F0CEB4C0CC0
:102810000CF1020C08BF4CEBD17C04E04FF0080C2B
:1028200001E04FEAD17C0CEB4C0324FA03F404F0F2
:102830000704B4F1040C06D20EEB840CBDE8104082
:102840004CF0010C6047DFE80CF0070802024FF083
:102850000040A0F5800010BD0846420018BFD2F12C
:10286000807288BF00F0004010BD4FF04070E1EE74
:10287000100A70470006101600061016000000002F
:102880000000000001020304060708090000000020
:1028900001020304B4280008000000204C000000DE
:1028A000C4010008002900084C00002004080000B2
:1028B000E001000800000000010802000000000024
:1028C0000000803F00000000000000000000000049
:1028D00000000000000000000000000000000000F8
:1028E000000000006572726F72206672616D650093
:1028F0000100000010000000000000000024F400AF
:040000050800018965
:00000001FF
